:100000000C9446000C945D000C945D000C945D0013
:100010000C945D000C945D000C945D000C945D00EC
:100020000C945D000C945D000C945D000C945D00DC
:100030000C945D000C945D000C945D000C945D00CC
:100040000C945D000C945D000C945D000C945D00BC
:100050000C945D000C945D000C945D000C945D00AC
:100060000C945D000C945D000C945D000C945D009C
:100070000C945D000C945D000C945D000C945D008C
:100080000C945D000C945D000C945D0011241FBE67
:10009000CFEFD0E1DEBFCDBF11E0A0E0B1E0E6EDF3
:1000A000F1E000E00BBF02C007900D92AA30B1074B
:1000B000D9F70E94C5000C94E9000C940000CF937E
:1000C000DF93FC01EB01C115D10509F45BC021915F
:1000D00031914191B8E0AFB7F894C09A27FD01C0C3
:1000E000C09827FD00C000000000000000000000D4
:1000F0000000220FBA95C09881F7B7E0C09A37FD8B
:1001000001C0C09837FD00C00000000000000000E2
:1001100000000000330FBA95C09881F70000C09A24
:1001200027FD01C0C09827FD00C0000000000000AE
:1001300021913191B7E0C09800000000C09A47FDBE
:1001400001C0C09847FD00C0000000000000000092
:1001500000000000440FBA95C09881F70000C09AD3
:1001600047FD01C0C09847FD00C000000000B8E096
:10017000219719F04191C098B0CF0000C0980000BD
:100180000000AFBFDF91CF9108950F931F93DF93CE
:10019000CF93CDB7DEB729970FB6F894DEBF0FBE69
:1001A000CDBFB89AC098DE011196E0E0F1E089E099
:1001B00001900D928150E1F78E010F5F1F4FC80132
:1001C00063E070E00E945F0085E88A95F1F7000027
:0601D000F6CFF894FFCF0A
:0A01D60099FFFF0000000000000088
:00000001FF
